:020000040800F2
:10000000900C00204D0100089911000871110008A2
:1000100095110008E10100087915000800000000B2
:100020000000000000000000000000002113000894
:10003000E5010008000000009B110008791300088A
:1000400067010008670100086701000867010008F0
:1000500067010008670100086701000867010008E0
:1000600067010008670100086701000867010008D0
:1000700067010008670100086701000867010008C0
:1000800067010008670100086701000867010008B0
:1000900067010008670100086701000867010008A0
:1000A0006701000867010008670100086701000890
:1000B0006701000867010008670100086701000880
:1000C0006701000867010008670100086701000870
:1000D0006701000867010008670100086701000860
:1000E0006701000867010008670100086701000850
:1000F0006701000867010008670100086701000840
:10010000670100086701000867010008670100082F
:10011000670100086701000867010008670100081F
:10012000670100086701000867010008670100080F
:10013000DFF80CD000F042F80048004779190008B9
:10014000900C002080F30888704700000648804724
:1001500006480047FEE7FEE7FEE7FEE7FEE7FEE7AC
:10016000FEE7FEE7FEE7FEE7811300083101000825
:10017000202A04DB203A21FA02F00021704721FAFC
:1001800002F3D040C2F12002914008431946704763
:1001900030B50B46014600202022012409E021FA57
:1001A00002F59D4205D303FA02F5491B04FA02F554
:1001B0002844151EA2F10102F1DC30BD064C074DAA
:1001C00006E0E06840F0010394E807009847103427
:1001D000AC42F6D3FFF7B0FFB81A0008D81A0008EF
:1001E00000BFFEE7704700000021074AD1610749C0
:1001F000096941F00201054A116111464861096926
:1002000041F04001116170473000002000200240A1
:100210000022054BDA61054A126942F00102034BE4
:100220001A61018070470000300000200020024069
:1002300000201E49C96801F0100139B11C49C96983
:1002400041F002011A4AD16140F010001749C96813
:1002500001F0040139B11649C96941F00101144A9C
:10026000D16140F004001149C96901F0010169B18F
:100270000F49C96941F004010D4AD16100BF0B4922
:10028000C96921F00101094AD16100BF00BF40F2F4
:100290000111884206D10549C96921F00101034ACB
:1002A000D16101E00149C86000BF704700200240F1
:1002B0003000002070B5044600F04EFA054609E013
:1002C000601C38B124B100F047FA401BA04201D9AC
:1002D000032070BD1248C06800F001000028EFD173
:1002E0000F48C06800F0200020B100BF20200C495A
:1002F000C86000BF0A48C06800F0100048B908484C
:10030000C06900F0010020B90548C06800F0040091
:1003100018B1FFF78DFF0120DBE70020D9E70000CF
:10032000002002400348006940F080000149086154
:1003300000207047002002402DE9FE4F05468B4605
:1003400017469846012600240020029000BF24484A
:10035000007E012802D10220BDE8FE8F0120204945
:10036000087600BF4CF25030FFF7A4FF064686BB6C
:10037000012D02D10120029006E0022D02D10220BF
:10038000029001E00420029000241EE02201B94600
:10039000C24648465146FFF7EBFE80B2019002206C
:1003A00000FB04B000900199FFF732FF4CF250308F
:1003B000FFF780FF06460B48006920F0010009495D
:1003C000086106B104E0601CC4B202988442DDDB1F
:1003D00000BF00BF00200249087600BF3046BBE7DF
:1003E000300000200020024000200849096901F087
:1003F000800151B10649054A5160064951601146D4
:10040000096901F0800101B101207047002002401C
:1004100023016745AB89EFCD2DE9F847024600235C
:100420009C467BE14FF0010808FA03F4D1F8008004
:1004300008EA0400A0427DD1DFF8F4A2D1F80480DC
:10044000A8EB0A09D0453AD014DCB8F1030F50D01C
:1004500009DCB8F1000F31D0B8F1010F1CD0B8F1B0
:10046000020F49D120E0B8F1110F18D0B8F1120FE6
:1004700042D11EE0B9F5881F25D006DCB9F5803FD2
:1004800020D0B9F5801F37D11AE0B9F5001F18D078
:10049000B9F5041F30D117E0D1F80CC02DE0D1F828
:1004A0000C8008F1040C28E0D1F80C8008F1080C4D
:1004B00023E0D1F80C8008F10C0C1EE000BF00BF57
:1004C00000BF00BF00BF00BFD1F80880B8F1000F27
:1004D00002D14FF0040C0BE0D1F80880B8F1010F05
:1004E00003D14FF0080C146102E04FF0080C546186
:1004F00003E04FF0000C00E000BF00BFFF2801D870
:10050000904601E002F104084646FF2802D84FEA6F
:10051000830803E0A3F108084FEA88084746D6F8A5
:1005200000804FF00F0909FA07F928EA09080CFAC8
:1005300007F900E07AE048EA0908C6F80080D1F837
:10054000048008F08058B8F1805F6FD100BFDFF8F9
:10055000E481D8F8188048F00108DFF8D891C9F88C
:100560001880C846D8F8188008F00108CDF8008037
:1005700000BF00BF4FEAB9384FEA930958F8295035
:100580004FEA83784FEA18794FF00F0808FA09F814
:1005900025EA0805DFF8A081424502D14FF00008A6
:1005A00024E0DFF89881424502D14FF001081DE0B8
:1005B000DFF88C81424502D14FF0020816E0DFF8E7
:1005C0008481424502D14FF003080FE0DFF87881C3
:1005D000424502D14FF0040808E0DFF8708142453F
:1005E00002D14FF0050801E04FF006084FEA837989
:1005F0004FEA197908FA09F848EA0505DFF8508149
:100600004FEA930948F82950D1F8048008F480385B
:10061000B8F5803F0BD1DFF83C81D8F8008048EA7C
:100620000008DFF83091C9F800800AE075E0DFF8D3
:100630002481D8F8008028EA0008DFF81891C9F86A
:100640000080D1F8048008F40038B8F5003F0ED1DE
:10065000DFF8008108F10408D8F8008048EA0008B3
:10066000DFF8F09009F10409C9F800800DE0DFF827
:10067000E48008F10408D8F8008028EA0008DFF8D0
:10068000D49009F10409C9F80080D1F8048008F475
:100690008018B8F5801F0ED1DFF8B88008F108087F
:1006A000D8F8008048EA0008DFF8A89009F10809A6
:1006B000C9F800800DE0DFF89C8008F10808D8F840
:1006C000008028EA0008DFF88C9009F10809C9F8D1
:1006D0000080D1F8048008F40018B8F5001F0ED18E
:1006E000DFF8708008F10C08D8F8008048EA0008AC
:1006F000DFF8609009F10C09C9F800800DE0DFF81F
:10070000548008F10C08D8F8008028EA0008DFF8C7
:10071000449009F10C09C9F800805B1CD1F80080F5
:1007200028FA03F8B8F1000F7FF47CAEBDE8F88733
:10073000000011100010024000080140000C0140B0
:10074000001001400014014000180140001C01404D
:1007500008000140000401400148006870470000A3
:10076000040000200348006803490978084401494F
:1007700008607047040000200C00002010B50848F5
:10078000006840F0100006490860052000F080F87D
:100790000F2000F007F800F02BF8002010BD00003B
:1007A0000020024070B504460E4800784FF47A717C
:1007B000B1FBF0F00C490968B1FBF0F5284600F0F8
:1007C000F7FB08B1012070BD102C07D20022214692
:1007D000501E00F01EF80548046001E00120F2E719
:1007E0000020F0E70C00002000000020080000209E
:1007F000704701460846002809DB00F01F0301226C
:100800009A4043099B0003F1E023C3F8002100BF95
:1008100070472DE9F05F80460D461646002700F030
:10082000BDFE074639462A46334601F00700C0F1AF
:10083000070ABAF1040F02D94FF0040A01E0C0F12F
:10084000070AD14600F1040ABAF1070F02D24FF0AD
:10085000000A01E0A0F1030AD4464FF0010A0AFAA7
:1008600009FAAAF1010A0AEA020A0AFA0CFA4FF096
:10087000010B0BFA0CFBABF1010B0BEA030B4AEA81
:100880000B042146404600F091FEBDE8F09F0000B9
:1008900000BF00F00702064B19684FF6FF0319402E
:1008A000044B0B4343EA0221014B196000BF704720
:1008B0000CED00E00000FA0570B504460D460CB9D9
:1008C000012070BD5A48006800F00700A8420ED20F
:1008D0005748006820F0070028435549086008463B
:1008E000006800F00700A84201D00120E9E7207865
:1008F00000F0020002281DD1207800F00400042836
:1009000005D14C48406840F4E0604A49486020788E
:1009100000F00800082805D14648406840F46050BF
:10092000444948604348406820F0F000A16808430B
:1009300040494860207800F0010078B360680128E1
:1009400006D13C48006800F4003090B90120B8E7B7
:100950006068022806D13748006800F0007040B98E
:100960000120AEE73348006800F0020008B901201A
:10097000A7E73048406820F00300616808432D492C
:100980004860FFF7E9FE064609E0FFF7E5FE801B39
:1009900041F28831884202D9032092E707E02548D6
:1009A000406800F00C006168B0EB810FEDD1204889
:1009B000006800F00700A8420ED91D48006820F02A
:1009C000070028431A4908600846006800F007003D
:1009D000A84201D0012074E7207800F00400042828
:1009E00007D11448406820F4E060E16808431149E9
:1009F0004860207800F00800082808D10D484068B9
:100A000020F46050216940EAC1000A49486000F0C2
:100A10003FF808494968C1F30311074A515CC840CF
:100A20000649086006480068FFF7BCFE002048E75A
:100A30000020024000100240A01A00080000002020
:100A400008000020014800687047000000000020F6
:100A500000B5FFF7F7FF04494968C1F30221034AD3
:100A6000515CC84000BD000000100240B01A0008F0
:100A700000B5FFF7E7FF04494968C1F3C221034A03
:100A8000515CC84000BD000000100240B01A0008D0
:100A9000F0B585B00FF26C0C9CE8E01001A8A0E85E
:100AA000E0101CA52D6800950021002200230024E1
:100AB0000020194D696801F00C05F5B1042D02D034
:100AC000082D19D101E0154819E001ADC1F38346A5
:100AD000AC5D01F4803555B10F4D6D68C5F34045EF
:100AE0001DF805200D4D6543B5FBF2F302E00C4DFA
:100AF00004FB05F3184602E000BF084800BF00BF32
:100B000005B0F0BD02030405060708090A0B0C0D29
:100B10000E0F1010010200000010024000127A00B7
:100B200000093D00F8B504460CB90120F8BD207855
:100B300000F00100002878D0F848406800F00C0070
:100B400004280CD0F548406800F00C00082811D1AA
:100B5000F248406800F48030B0F5803F0AD1EF4899
:100B6000006800F4003000285FD0606800285CD185
:100B70000120DBE700BF6068B0F5803F06D1E748A1
:100B8000006840F48030E549086028E0606858B9A2
:100B9000E248006820F48030E049086008460068B8
:100BA00020F4802008601AE06068B0F5A02F0BD117
:100BB000DA48006840F48020D84908600846006898
:100BC00040F4803008600AE0D448006820F48030A7
:100BD000D24908600846006820F48020086000BF01
:100BE000606888B1FFF7B8FD054606E0FFF7B4FD81
:100BF000401B642801D9032098E7C848006800F426
:100C000000300028F2D010E0FFF7A6FD054606E010
:100C1000FFF7A2FD401B642801D9032086E7BF48E7
:100C2000006800F400300028F2D1207800F00200C3
:100C3000022857D1B948406800F00C0050B1B748BD
:100C4000406800F00C00082818D1B448406800F44F
:100C5000803098B9B148006800F0020020B12069E6
:100C6000012801D0012061E7AC48006820F0F800BD
:100C7000616940EAC100A949086033E02069E8B130
:100C80000120A7490860FFF767FD054606E0FFF76A
:100C900063FD401B022801D9032047E79F480068F5
:100CA00000F002000028F2D09C48006820F0F80014
:100CB000616940EAC1009949086013E00020984941
:100CC0000860FFF749FD054606E0FFF745FD401BBC
:100CD000022801D9032029E79048006800F00200AB
:100CE0000028F2D1207800F0080008282DD1A06952
:100CF000B8B101208B490860FFF72EFD054606E0DC
:100D0000FFF72AFD401B022801D903200EE7834884
:100D1000406A00F002000028F2D0012000F03EFA04
:100D200013E000207F490860FFF716FD054606E046
:100D3000FFF712FD401B022801D90320F6E6774891
:100D4000406A00F002000028F2D1207800F0040090
:100D5000042873D100277148C06900F0805070B931
:100D600000BF6E48C06940F080506C49C8610846B9
:100D7000C06900F08050009000BF00BF01276A48A2
:100D8000006800F48070B0B96748006840F4807073
:100D900065490860FFF7E0FC054606E0FFF7DCFC6C
:100DA000401B642801D90320C0E65F48006800F4B6
:100DB00080700028F2D000BFE068012806D15748B3
:100DC000006A40F001005549086227E0E06858B920
:100DD0005248006A20F00100504908620846006A43
:100DE00020F00400086219E0E06805280BD14B48A8
:100DF000006A40F00400494908620846006A40F071
:100E0000010008620AE04548006A20F001004349F9
:100E100008620846006A20F00400086200BFE0682B
:100E2000A0B1FFF799FC054609E0FFF795FC401BD0
:100E300041F28831884202D9032077E622E0374820
:100E4000006A00F002000028EFD012E0FFF784FCF7
:100E5000054608E0FFF780FC401B41F288318842DC
:100E600001D9032062E62D48006A00F00200002844
:100E7000F0D1012F05D12948C06920F080502749C1
:100E8000C86100BFE069C8B32448406800F00C00A6
:100E9000082860D0E069022848D10020204908666F
:100EA000FFF75AFC054606E0FFF756FC401B0228F8
:100EB00001D903203AE61948006800F000700028C4
:100EC000F2D1206AB0F5803F07D11448406820F481
:100ED0000030A168084311494860D4E9080108437B
:100EE0000E49496821F4741108430C4948600120F7
:100EF0000B490866FFF730FC054607E03DE0FFF7C9
:100F00002BFC401B022801D903200FE60348006890
:100F100000F000700028F2D02FE000000010024026
:100F20000000424280044242007000400020144908
:100F30000866FFF711FC054606E0FFF70DFC401BB5
:100F4000022801D90320F1E50E48006800F0007086
:100F50000028F2D111E0E069012800D1E6E5094856
:100F6000466806F48031206A814204D106F470118B
:100F7000606A814201D00120D8E50020D6E500005A
:100F80000000424200100240042808D14FF0E02146
:100F9000096941F004014FF0E022116107E04FF0D0
:100FA000E021096921F004014FF0E022116170474E
:100FB00070B504462546681EB0F1807F01D301203C
:100FC0000FE0681E4FF0E02148610F214FF0FF3025
:100FD00000F0ECFA00204FF0E02188610720086162
:100FE000002070BD10B504460CB9012010BDA069E9
:100FF00000B100E000BF94F8390028B9002084F85F
:101000003800204600F028F8242084F839002068B1
:10101000C06820F400502168C860204600F0DCF968
:101020002068006920F490402168086120684069C8
:1010300020F02A00216848612068C06840F4005010
:101040002168C8600020E063202084F8390084F81B
:101050003A000020CAE7000010B586B004462549D2
:101060002068884244D100BF2348806940F00400D2
:10107000214988610846806900F00400019000BFA2
:1010800000BF00BF0846806940F480408861084680
:10109000806900F48040019000BF00BF00BF084697
:1010A000806940F0010088610846806900F0010015
:1010B000019000BF00BF481502900220039001205C
:1010C00004900320059002A90C48FFF7A5F94FF4FE
:1010D000806002900020039002A90848FFF79CF965
:1010E0002520FFF786FB032211462520FFF791FB01
:1010F00006B010BD00380140001002400008014059
:1011000010B5034693F83A0020282FD101B10AB94F
:10111000012010BD00BF93F83800012801D1022042
:10112000F7E7012083F8380000BF99629A85DA85D5
:101130000020D863222083F83A0000BF002083F803
:10114000380000BF1868C06840F480701C68E06018
:101150001868406940F001001C6860611868C06848
:1011600040F020001C68E0600020D2E70220D0E7B9
:1011700002E002A000F002FAFBE70000486172649E
:101180004661756C745F48616E646C657200000046
:1011900072B6704700BFFEE77047704708B5084950
:1011A0000968C9084FF47A72B1FBF2F1414300912A
:1011B00000BF00BF00994A1E00920029F9D108BD66
:1011C0000000002030B503460C461546002207E01B
:1011D000184600F008F824F812009B1C501C82B23C
:1011E000AA42F5DB30BD0146088870472DE9F05F63
:1011F00080468A461746B8F1006F02D33A488045C8
:1012000001D3BDE8F09FFFF7EFF8A8F1006B4FEABC
:10121000DB25CBF34909C9F58064A74200DC3C46D5
:101220005CE04FF0006101EBC5204A142F49FFF745
:10123000C9FF00260BE009EB06002C4931F810002D
:101240004FF6FF71884200D003E0701C86B2A642C0
:10125000F1DB00BFA64225DA4FF0006101EBC520AB
:10126000FEF7C2FF4CF25030FFF724F82048006927
:1012700020F002001E490861002608E03AF8160036
:1012800006EB0901194A22F81100701C86B2A64229
:10129000F4DB4FF0006101EBC5204A14134900F064
:1012A00029F808E04CF25030FFF704F82246514686
:1012B000404600F01FF8A74200D110E06D1C4FF02F
:1012C00000090AEB440A08EB4408381B87B2B7F55B
:1012D000806F02DD4FF4806400E03C46A1E700BF70
:1012E000FFF720F800BF8CE70000080890000020FE
:1012F000002002402DE9F04104460E461746002525
:101300000AE036F815C06246002321460120FFF7A7
:1013100013F8A41C681C85B2BD42F2DBBDE8F08165
:10132000704730B58FB005460024012005900004B9
:1013300006900020079002200C90C1030D910E959D
:1013400005A8FFF7EFFB04460CB100BFFEE70F2036
:10135000009002200190002002904FF480600390E2
:101360000020049002216846FFF7A6FA04460CB15B
:1013700000BFFEE70FB030BD10B5FFF7F3F910BDA9
:101380001148006840F001000F49086008464068B5
:101390000E4908400C494860084600680C4908405E
:1013A000094908600846006820F480200860084663
:1013B000406820F4FE0048604FF41F008860C803B6
:1013C0000449086070470000001002400000FFF868
:1013D000FFFFF6FE08ED00E070B5044621680969DC
:1013E00021F44051E2681143226811612269A16829
:1013F0001143626941EA02052168C96841F20C6241
:10140000914329432268D1602168496921F44071E0
:10141000A269114322685161564A2168914254D110
:10142000FFF726FB00EBC00101EB001162689200A0
:10143000B1FBF2F100EBC00202EB001263689B000B
:10144000B2FBF3F26423B2FBF3F202EBC20303EB51
:101450000212A1EB8201322202EB01116422B1FBE4
:10146000F2F101F0F00100EBC00202EB0012636840
:101470009B00B2FBF3F26423B2FBF3F201EB021226
:1014800000EBC00101EB001163689B00B1FBF3F1BD
:1014900000EBC00303EB00136668B600B3FBF6F382
:1014A0006426B3FBF6F303EBC30606EB0313A1EBD1
:1014B0008301322303EB01116423B1FBF3F101F04B
:1014C0000F0111442268916053E0FFF7C1FA00EB6D
:1014D000C00101EB001162689200B1FBF2F100EB78
:1014E000C00202EB001263689B00B2FBF3F26423BC
:1014F000B2FBF3F202EBC20303EB0212A1EB820197
:10150000322202EB01116422B1FBF2F101F0F00191
:1015100000EBC00202EB001263689B00B2FBF3F227
:101520006423B2FBF3F201EB021200EBC00101EB0A
:10153000001163689B00B1FBF3F100EBC00303EB08
:1015400000136668B600B3FBF6F36426B3FBF6F34C
:1015500003EBC30606EB0313A1EB8301322303EB7A
:1015600001116423B1FBF3F101F00F011144226872
:10157000916070BD0038014000BFFEE70FB4054B1D
:1015800010B503A9044A029800F034F810BC5DF8C5
:1015900014FB0000B5180008140000200248006881
:1015A000C0F30220704700000CED00E010B50028E9
:1015B00004DB0A07130E054A135406E00A07140E4B
:1015C000034A00F00F031B1FD45410BD00E400E0D9
:1015D00018ED00E002E008C8121F08C1002AFAD185
:1015E00070477047002001E001C1121F002AFBD1A3
:1015F000704700002DE9FF4F89B09B460446002547
:1016000006E025280BD05A460B999047641C6D1CA8
:1016100020780028F5D10DB02846BDE8F08F0027CE
:10162000B8460122474900E0074314F8013F203B38
:1016300002FA03F00842F7D120782E2819D114F8C5
:10164000010F47F004072A280ED06FF02F022078F0
:10165000A0F1300109290CD808EB880102EB410107
:1016600000EB0108641CF2E70A98641C50F8048B34
:101670000A9020780028CED0642808D0692806D0A7
:1016800075281ED05A460B9990476D1C58E00A9950
:101690004FF00A0901C90A91002802DA40422D21BF
:1016A00002E0390504D52B218DF82010012103E03B
:1016B000F90704D02021F7E78A4608AE0DE00021A3
:1016C000FAE70A994FF00A0901C90A91F7E7494672
:1016D000FEF75EFD303106F8011D0028F7D1ADEBB5
:1016E000060000F12009780701D44FF00108C84531
:1016F00002DDA8EB090000E000208046002706E09C
:1017000008A85A46C05D0B9990476D1C7F1C574531
:10171000F6DB04E030205A460B9990476D1CB8F177
:101720000001A8F10108F5DC05E016F8010B5A46A6
:101730000B9990476D1CB9F10001A9F10109F4DC86
:10174000641C65E70928010010B504460420FFF772
:101750001BFC0148046010BD1000002010B50222DF
:1017600017491848FFF72EFD1548018816A0FFF706
:1017700005FF1348008801281AD11148418818A094
:10178000FFF7FCFE00200E49088002220D48FFF7FB
:101790002DFD1BA0FFF7F2FE094841881F4800F00D
:1017A0001BF91FA0FFF7EAFE234800F091F805E0BF
:1017B00022A0FFF7E3FE204800F08AF810BD0000E9
:1017C00028000020003002086669726D776172653A
:1017D0005F696E666F203D202564200D0A000000C1
:1017E0006669726D776172655F696E666F5F617061
:1017F000706C656E203D202564200D0A00000000FD
:10180000B6C1C8A1B5BDB1EAD6BECEBBA3ACBDF8CA
:10181000D0D0C9FDBCB60D0A0000000000000308CE
:10182000D0B4C8EBCDEAB3C9A3ACB5C8B4FDD4CB32
:10183000D0D00D0A0000000000000108BDF8C8EB80
:10184000656C73650000000001480021016070476D
:101850002800002070B505460E46144604B970BD38
:101860000A48406800F07F40B0F1006F08D122467E
:101870003146284600F04CF805A0FFF77FFE02E055
:1018800007A0FFF77BFE00BFE9E700000010002083
:10189000CFC2D4D8B3CCD0F2B3C9B9A60D0A0000D8
:1018A000666C617368B9CCBCFEB4EDCEF3A3A10D38
:1018B0000A00000000BF054A126802F04002002A38
:1018C000F9D0C2B2014B1B1D1A60704700380140AD
:1018D00010B50446206809490840B0F1005F0BD1FB
:1018E00007A0FFF74BFE6068084908602068FEF714
:1018F00029FC06480068804710BD00000000FE2F4C
:10190000CCF8D7AAB3C9B9A6000000002400002073
:101910002DE9F05F06460F4690460024B3463D464B
:10192000A1461CE068784FEA002A287850441FFA44
:1019300080FAAD1C2046611C8CB20E4921F810A023
:10194000B4F5806F07D100244FF480625846FFF74A
:101950004DFC0BF5006B09F102001FFA80F9C1453F
:10196000E0D324B1224603495846FFF73FFCBDE8C7
:10197000F09F000000D80020FEF700FF4FF4E010B9
:10198000FFF7CFFC4820FFF7DFFE4FF4E13000F017
:1019900007F8FFF759FF01E0FFF7E0FEFCE7000062
:1019A00010B5044609480A49086008464460002109
:1019B0008160C160016181610C214161FFF712FB0F
:1019C000012204490248FFF79BFB10BD003801408B
:1019D00050000020200000202DE9F84F82460D46DF
:1019E0004FF000090020009000240026DFF88480DA
:1019F000FFF7CEFBFEF7F8FC05F00106A5EB0609A4
:101A0000002716E039461CA0FFF7B8FD0122694601
:101A10004046FFF7D7FBBDF80000010A1B4A601CD7
:101A20001154BDF8000011460855A41C08F1020825
:101A3000BF1C4F45E6D3012269464046FFF7C2FB73
:101A4000002008E0C200BDF80010114122180F4B21
:101A50009954411CC8B2B042F4D3344421460CA07E
:101A6000FFF78CFD224609490C48FFF7F3FEBDE85D
:101A7000F88F000000000308D1ADBBB7B4CECAFD9B
:101A8000A3BA20693D20256400000000001000205A
:101A9000B3A4B6C8CEAAA3BA25640000000001080A
:101AA000000000000000000001020304060708090E
:101AB0000000000001020304D81A00080000002002
:101AC0002C000000D4150008041B00082C00002086
:101AD000D4DF0000E41500080024F400000000003A
:101AE00010000000010000000000000000000000E5
:101AF00000000000000000000000000000000000E6
:041B000000000000E1
:0400000508000131BD
:00000001FF
